:020000040000FA
:1000000011EF0BF0D9CFE5FFE1CFD9FF00C0E5FF3D
:1000100001C0E5FF02C0E5FF03C0E5FF04C0E5FF46
:1000200005C0E5FF06C0E5FF07C0E5FF020EDBCF18
:1000300000F0030EDBCF01F0040EDBCF02F0050E63
:10004000DBCF03F00050010A02E1015001E061D072
:10005000800EE56E61EC0EF0E6520150E56E005048
:10006000E56E000EE56E060EE56E5EEC0CF0046EBD
:10007000F3CF05F0040EE126A10E0426000E0522A2
:100080000350E56E0250E56E000EE56E030EE56E60
:100090005EEC0CF0066EF3CF07F0040EE12606507E
:1000A00004260750052204C0E9FF05C0EAFFEECF91
:1000B00004F0EECF05F0EFCF06F00650E56E0550E8
:1000C000E56E0450E56EAEEC0CF0030EE126C00EBA
:1000D000E56E61EC0EF0E6521DEC15F0046EF3CF08
:1000E00005F00550E56E0450E56E76EC01F0E65241
:1000F000E652000E066E180E056E2C0E046E0650AB
:10010000E56E0550E56E0450E56EAEEC0CF0030EA6
:10011000E12600500110D8A461D0800EE56E61EC9C
:100120000EF0E6520150E56E0050E56E000EE56EF1
:10013000060EE56E5EEC0CF0046EF3CF05F0040ED7
:10014000E126A10E0426000E05220350E56E0250A2
:10015000E56E000EE56E030EE56E5EEC0CF0066ECD
:10016000F3CF07F0040EE1260650042607500522BF
:1001700004C0E9FF05C0EAFFEECF04F0EECF05F0C2
:10018000EFCF06F00650E56E0550E56E0450E56EC3
:10019000AEEC0CF0030EE126C00EE56E61EC0EF045
:1001A000E65212EC15F0046EF3CF05F00550E56E43
:1001B0000450E56E76EC01F0E652E652000E066E53
:1001C000180E056E2C0E046E0650E56E0550E56E99
:1001D0000450E56EAEEC0CF0030EE1260050020A6E
:1001E00002E1015001E06FD0800EE56E61EC0EF08F
:1001F000E6520150E56E0050E56E000EE56E060E0B
:10020000E56E5EEC0CF0006EF3CF01F0040EE1261B
:10021000A10E0026000E01220350E56E0250E56E8D
:10022000000EE56E030EE56E5EEC0CF0026EF3CF91
:1002300003F0040EE126025000260350012200C004
:10024000E9FF01C0EAFFEECF00F0EECF01F0EFCF03
:1002500002F00250E56E0150E56E0050E56EAEEC26
:100260000CF0030EE126C00EE56E61EC0EF0E652D6
:100270003BEC15F0006E005010E1000E026E180EFF
:10028000016E380E006E0250E56E0150E56E0050B2
:10029000E56EAEEC0CF0030EE1263BEC15F0006EC3
:1002A0000050010A10E1000E026E180E016E4A0E97
:1002B000006E0250E56E0150E56E0050E56EAEEC4A
:1002C0000CF0030EE126E4CF07F0E4CF06F0E4CF14
:1002D00005F0E4CF04F0E4CF03F0E4CF02F0E4CF84
:1002E00001F0E4CF00F0E4CFD9FF1200D9CFE5FF51
:1002F000E1CFD9FF00C0E5FF01C0E5FF02C0E5FF87
:1003000003C0E5FF020EDBCF00F0030EDBCF01F0F0
:10031000D88001AED89009E3011E006CD8B4012A40
:100320002D0EE56ED8EC0DF0E652270EE56E100EA0
:10033000E56E0150E56E0050E56E9EEC07F0026E32
:10034000F3CF03F0040EE126000EE56E0A0EE56E13
:100350000350E56E0250E56E15EC08F0026EF3CF27
:1003600003F0040EE126300E02260250E56ED8ECB2
:100370000DF0E652030EE56EE80EE56E0150E56EF7
:100380000050E56E9EEC07F0026EF3CF03F0040E12
:10039000E126000EE56E0A0EE56E0350E56E025092
:1003A000E56E15EC08F0026EF3CF03F0040EE126C3
:1003B000300E02260250E56ED8EC0DF0E652000E2B
:1003C000E56E640EE56E0150E56E0050E56E9EEC44
:1003D00007F0026EF3CF03F0040EE126000EE56E87
:1003E0000A0EE56E0350E56E0250E56E15EC08F05E
:1003F000026EF3CF03F0040EE126300E0226025007
:10040000E56ED8EC0DF0E652000EE56E0A0EE56ED4
:100410000150E56E0050E56E9EEC07F0026EF3CFE2
:1004200003F0040EE126000EE56E0A0EE56E0350A1
:10043000E56E0250E56E15EC08F0026EF3CF03F0A6
:10044000040EE126300E02260250E56ED8EC0DF0C7
:10045000E652000EE56E0A0EE56E0150E56E0050A4
:10046000E56E15EC08F0006EF3CF01F0040EE12606
:10047000300E00260050E56ED8EC0DF0E652E4CFC9
:1004800003F0E4CF02F0E4CF01F0E4CF00F0E4CFDA
:10049000D9FF1200D9CFE5FFE1CFD9FF00C0E5FFBA
:1004A00001C0E5FF02C0E5FF03C0E5FF04C0E5FFB2
:1004B00005C0E5FF06C0E5FF07C0E5FF08C0E5FF92
:1004C00009C0E5FF0AC0E5FF0BC0E5FF0CC0E5FF72
:1004D0000DC0E5FF020EDBCF00F0030EDBCF01F015
:1004E000040EDBCF02F0050EDBCF03F0060EDBCFF0
:1004F00004F0070EDBCF05F0080EDBCF06F0090E87
:10050000DBCF07F0D88003AED890086A08360850D1
:100510000FE0031C0C6E021C0B6E011C0A6E001C0B
:10052000096E092A0DE10A2A0BE10B4A0C2A08D0B0
:1005300000C009F001C00AF002C00BF003C00CF0CB
:10054000D88007AED890006A003600500FE0071C34
:100550000D6E061C036E051C026E041C016E012A42
:100560000DE1022A0BE1034A0D2A08D004C001F074
:1005700005C002F006C003F007C00DF00D50E56E97
:100580000350E56E0250E56E0150E56E0C50E56ECD
:100590000B50E56E0A50E56E0950E56E90EC06F0E2
:1005A000016EF3CF02F0F4CF03F0E9CF04F0080EB0
:1005B000E1260050081A085016E0041C076E031CC0
:1005C000066E021C056E011C006E002A04E1052A5D
:1005D00002E1064A072A07C0E9FF06C0F4FF05C08A
:1005E000F3FF005007D004C0E9FF03C0F4FF02C0CE
:1005F000F3FF0150E4CF0DF0E4CF0CF0E4CF0BF0AB
:10060000E4CF0AF0E4CF09F0E4CF08F0E4CF07F03C
:10061000E4CF06F0E4CF05F0E4CF04F0E4CF03F03C
:10062000E4CF02F0E4CF01F0E4CF00F0E4CFD9FF53
:100630001200D9CFE5FFE1CFD9FF00C0E5FF01C02F
:10064000E5FF02C0E5FF0FEE80F0000EEF6E0FEE4B
:1006500084F0000EEF6E0FEE83F0000EEF6E040ECE
:100660000001C65DD8B0A7D0FA6AFB6A0001C635A2
:10067000FA36E834FA36FC0B880FE56E060EFA22DD
:10068000000EFB22E450F96E4CEF03F070EF03F024
:1006900094EF03F0B8EF03F09A0E0001C725006E47
:1006A000016A2A0E0122026A000E022200C0F6FF31
:1006B00001C0F7FF02C0F8FF0900F5CF00F00FEE10
:1006C00083F000C0EFFF0FEE80F0EFCF00F0008A64
:1006D0000FEE80F000C0EFFF010E0001C66F6DD07D
:1006E0009A0E0001C825006E016A2A0E0122026AD4
:1006F000000E022200C0F6FF01C0F7FF02C0F8FFA3
:100700000900F5CF00F00FEE83F000C0EFFF0FEE11
:1007100080F0EFCF00F000840FEE80F000C0EFFF1C
:10072000020E0001C66F49D09A0E0001C925006E65
:10073000016A2A0E0122026A000E022200C0F6FFA0
:1007400001C0F7FF02C0F8FF0900F5CF00F00FEE7F
:1007500083F000C0EFFF0FEE84F0EFCF00F00080D9
:100760000FEE84F000C0EFFF030E0001C66F25D02E
:100770009A0E0001CA25006E016A2A0E0122026A41
:10078000000E022200C0F6FF01C0F7FF02C0F8FF12
:100790000900F5CF00F00FEE83F000C0EFFF0FEE81
:1007A00084F0EFCF00F000840FEE84F000C0EFFF84
:1007B0000001C66B02D00001C66BE4CF02F0E4CFAB
:1007C00001F0E4CF00F0E4CFD9FF1200D9CFE5FF6C
:1007D000E1CFD9FF00C0E5FF01C0E5FF02C0E5FFA2
:1007E00003C0E5FF49EC0DF0006EF3CF01F044ECDF
:1007F00015F0016E030E015CD8B092D0FA6AFB6A64
:100800000134FA36E834FA36FC0B1A0FE56E080E9E
:10081000FA22000EFB22E450F96E13EF04F042EFCF
:1008200004F070EF04F00050030A0FE112EC15F031
:10083000016EF3CF02F0014A022A0250E56E015028
:10084000E56EC8EC14F0E652E6520050020A10E1E0
:1008500012EC15F0016EF3CF02F0FF0E012602221A
:100860000250E56E0150E56EC8EC14F0E652E65217
:100870000050040A01E054D0010EE56E28EC15F09A
:10088000E6524ED00050030A0FE11DEC15F0016E48
:10089000F3CF02F0014A022A0250E56E0150E56EE4
:1008A000D5EC14F0E652E6520050020A10E11DECBD
:1008B00015F0016EF3CF02F0FF0E01260222025066
:1008C000E56E0150E56ED5EC14F0E652E6520050AC
:1008D000040A26E1020EE56E28EC15F0E65220D05F
:1008E0000050030A09E13BEC15F0016E012A0150AA
:1008F000E56E75EC14F0E6520050020A09E13BEC9B
:1009000015F0016E01060150E56E75EC14F0E6522B
:100910000050040A05E1000EE56E28EC15F0E652E1
:1009200044EC15F0006E016A3BEC15F0026E036AB0
:100930000350E56E0250E56E0150E56E0050E56E25
:1009400002EC00F0040EE126E4CF03F0E4CF02F065
:10095000E4CF01F0E4CF00F0E4CFD9FF1200D9CF0B
:10096000E5FFE1CFD9FF00C0E5FF01C0E5FF02C010
:10097000E5FF03C0E5FF04C0E5FF05C0E5FF06C0D5
:10098000E5FF07C0E5FF08C0E5FF09C0E5FF006A15
:10099000016A026A010E036E005005E0E86CD8900F
:1009A0000336010FFDE3031E0FEE93F003C0EFFFCC
:1009B0000FEE81F003C0EFFF036A0FEE81F0EFCF7F
:1009C00004F003C005F0066A040E0526D8B0062A16
:1009D000010E076E000E086E05500FE007E6E86C8A
:1009E000D89007360836010FFCE307D0D89008BE30
:1009F000D88008320732010FFAE3096A045007165B
:100A0000095008160750081010E103500224046E24
:100A1000010E056E045005E0E86CD8900536010F14
:100A2000FDE3055000019F1311D003500124046E13
:100A3000010E056E045005E0E86CD8900536010FF4
:100A4000FDE3051C046E045000019F17032A020EEB
:100A5000035CD8A0B2D7012A012A022A022A002A5E
:100A6000040E005CD8A096D70001A05100019F1988
:100A700003E10001C40705D00A0E0001C46F9FC046
:100A8000A0F00001C45102E1A0C09EF0E4CF09F043
:100A9000E4CF08F0E4CF07F0E4CF06F0E4CF05F0B0
:100AA000E4CF04F0E4CF03F0E4CF02F0E4CF01F0B0
:100AB000E4CF00F0E4CFD9FF1200D9CFE5FFE1CFBA
:100AC000D9FF00C0E5FF01C0E5FF02C0E5FF00015E
:100AD000B4510001B61905E10001B5510001B71983
:100AE000F6E00001B551E56E0001B451E56E000E6F
:100AF000E56E030EE56E5EEC0CF0006EF3CF01F0D8
:100B0000040EE126800E0026000E012200C0E9FF3F
:100B100001C0EAFFEECF00F0EECF01F0EFCF02F020
:100B200000C0E9FF01C0F3FF0250AEEC13F0006E0D
:100B3000F3CF01F0F4CF02F0F2CFE5FFF29E050013
:100B40005C0EFD6E0B0EFE6E000EFF6EE4BEF28EAE
:100B500002C0FBFF01C0FAFF0050F96E006E0050AA
:100B6000020A29E10001B551E56E0001B451E56EBC
:100B7000000EE56E030EE56E5EEC0CF0006EF3CF3A
:100B800001F0040EE126800E0026000E012200C0B6
:100B9000E9FF01C0EAFFEECF00F0EECF01F0EFCFAA
:100BA00002F00250E56E0150E56E0050E56E20EC5B
:100BB00007F0030EE1260001B451010F006E000E94
:100BC0000001B521016E000EE56E0A0EE56E0150C2
:100BD000E56E0050E56E15EC08F00001B46FF3CF40
:100BE000B5F0040EE12673D7E4CF02F0E4CF01F0B4
:100BF000E4CF00F0E4CFD9FF1200D9CFE5FFE1CF79
:100C0000D9FF00C0E5FF01C0E5FF020EDBCF00F019
:100C10000FEE82F0EFCF01F0019A0FEE82F001C0EB
:100C2000EFFF0FEE82F0EFCF01F001960FEE82F0B2
:100C300001C0EFFF0FEE82F0EFCF01F001980FEE51
:100C400082F001C0EFFF0FEE82F0EFCF01F0018ADA
:100C50000FEE82F001C0EFFFD8900036810E001237
:100C60000050E56E61EC0AF0E6520FEE94F0EFCF23
:100C700000F000880FEE94F000C0EFFF640E00015A
:100C8000C56F0001C5070001C551FBE1640E0001FD
:100C9000C56F0001C5070001C551FBE1640E0001ED
:100CA000C56F0001C5070001C551FBE1640E0001DD
:100CB000C56F0001C5070001C551FBE1640E0001CD
:100CC000C56FFDEC0CF0006E0FEE82F0EFCF01F07F
:100CD000019A0FEE82F001C0EFFF0FEE82F0EFCF2E
:100CE00001F001960FEE82F001C0EFFF0FEE82F0EF
:100CF000EFCF01F001980FEE82F001C0EFFF0FEE91
:100D000094F0EFCF01F001980FEE94F001C0EFFFE7
:100D10000050E4CF01F0E4CF00F0E4CFD9FF12009F
:100D2000D9CFE5FFE1CFD9FF00C0E5FF01C0E5FF66
:100D300002C0E5FF03C0E5FF04C0E5FF05C0E5FF15
:100D400006C0E5FF07C0E5FF08C0E5FF09C0E5FFF5
:100D50000AC0E5FF0BC0E5FF0CC0E5FF0DC0E5FFD5
:100D6000020EDBCF00F0030EDBCF01F0040EDBCF71
:100D700002F0050EDBCF03F0060EDBCF04F0070E0A
:100D8000DBCF05F0080EDBCF06F0090EDBCF07F056
:100D9000086A096A0A6A0B6A200E0C6E0350800BFF
:100DA000E8440D6E00500026013602360336085026
:100DB000082609360A360B360D50D8A4088007508D
:100DC0000B5C08E106500A5C05E10550095C02E194
:100DD0000450085C09E30450085E0550095A0650A7
:100DE0000A5A07500B5A00800C040D6E0DC00CF00F
:100DF0000D50D4E103C0E9FF02C0F4FF01C0F3FFCE
:100E00000050E4CF0DF0E4CF0CF0E4CF0BF0E4CFD2
:100E10000AF0E4CF09F0E4CF08F0E4CF07F0E4CF24
:100E200006F0E4CF05F0E4CF04F0E4CF03F0E4CF24
:100E300002F0E4CF01F0E4CF00F0E4CFD9FF1200DC
:100E4000D9CFE5FFE1CFD9FF00C0E5FF01C0E5FF45
:100E500002C0E5FF03C0E5FF04C0E5FF020EDBCFE3
:100E600000F0030EDBCF01F0040EDBCF02F0000137
:100E7000B651010F036E000E0001B721046E000E83
:100E8000E56E0A0EE56E0450E56E0350E56E15EC56
:100E900008F0036EF3CF04F0040EE12603500001C6
:100EA000B41905E104500001B51901E139D0000180
:100EB000B751E56E0001B651E56E000EE56E030E0A
:100EC000E56E5EEC0CF0036EF3CF04F0040EE12649
:100ED000800E0326000E042203C0E9FF04C0EAFFCF
:100EE00000C0EEFF01C0EEFF02C0EFFF0001B651EF
:100EF000010F006E000E0001B721016E000EE56EBD
:100F00000A0EE56E0150E56E0050E56E15EC08F036
:100F10000001B66FF3CFB7F0040EE126E86A01D006
:100F2000010EE4CF04F0E4CF03F0E4CF02F0E4CF0D
:100F300001F0E4CF00F0E4CFD9FF1200D9CFE5FFF4
:100F4000E1CFD9FF00C0E5FF01C0E5FF02C0E5FF2A
:100F500003C0E5FF04C0E5FF05C0E5FF06C0E5FFEF
:100F600007C0E5FF020EDBCF00F0030EDBCF01F080
:100F7000040EDBCF02F0050EDBCF03F0D88001AE0C
:100F8000D890046A0436045007E0011C066E001C69
:100F9000056E054A062A04D000C005F001C006F01F
:100FA000D88003AED890006A0036005007E0031CDA
:100FB000076E021C016E014A072A04D002C001F02C
:100FC00003C007F00750E56E0150E56E0650E56E70
:100FD0000550E56EB9EC0AF0016EF3CF02F0040E95
:100FE000E1260050041A04500AE0021C036E011CA2
:100FF000006E004A032A03C0F3FF005003D002C072
:10100000F3FF0150E4CF07F0E4CF06F0E4CF05F0A2
:10101000E4CF04F0E4CF03F0E4CF02F0E4CF01F03A
:10102000E4CF00F0E4CFD9FF1200D9CFE5FFE1CF44
:10103000D9FF00C0E5FF01C0E5FF02C0E5FF03C026
:10104000E5FF04C0E5FF05C0E5FF06C0E5FF020EB1
:10105000DBCF00F0030EDBCF01F0040EDBCF02F09C
:10106000050EDBCF03F0D88001AED890046A0436B9
:10107000045007E0011C066E001C056E054A062A96
:1010800004D000C005F001C006F0D88003AED890AF
:1010900007E3031C016E021C006E004A012A04D003
:1010A00002C000F003C001F00150E56E0050E56E93
:1010B0000650E56E0550E56E04EC0AF0006EF3CFC5
:1010C00001F0040EE12604500AE0011C036E001C2E
:1010D000026E024A032A03C0F3FF025003D001C08C
:1010E000F3FF0050E4CF06F0E4CF05F0E4CF04F0C6
:1010F000E4CF03F0E4CF02F0E4CF01F0E4CF00F05E
:10110000E4CFD9FF1200D9CFE5FFE1CFD9FF00C06E
:10111000E5FF01C0E5FF02C0E5FF020EDBCF00F0F6
:10112000030EDBCF01F00FEE82F0EFCF02F0029A58
:101130000FEE82F002C0EFFF0FEE82F0EFCF02F071
:1011400002960FEE82F002C0EFFF0FEE82F0EFCFBB
:1011500002F002980FEE82F002C0EFFF0FEE82F075
:10116000EFCF02F0028A0FEE82F002C0EFFFD890BC
:101170000036008E0050E56E61EC0AF0E652015038
:10118000E56E61EC0AF0E6520FEE82F0EFCF00F070
:10119000009A0FEE82F000C0EFFF0FEE82F0EFCF6B
:1011A00000F000960FEE82F000C0EFFF0FEE82F02D
:1011B000EFCF00F000980FEE82F000C0EFFFE4CF19
:1011C00002F0E4CF01F0E4CF00F0E4CFD9FF120049
:1011D000D9CFE5FFE1CFD9FF00C0E5FF01C0E5FFB2
:1011E00002C0E5FF03C0E5FF04C0E5FF05C0E5FF61
:1011F000020EDBCF00F0030EDBCF01F00150E56EF5
:101200000050E56E000EE56E020EE56E5EEC0CF031
:10121000006EF3CF01F0040EE12600C002F001C021
:1012200003F0046A056A0250FF08026EFF0E0356BF
:10123000000E0456000E05560250006E0350016E5B
:10124000F20E0026D8A001060150026E036A0FEECE
:10125000D7F002C0EFFF016A0FEED6F000C0EFFF3B
:101260000FEEF2F0EFCF00F000940FEEF2F000C0BE
:10127000EFFFE4CF05F0E4CF04F0E4CF03F0E4CFD8
:1012800002F0E4CF01F0E4CF00F0E4CFD9FF120088
:10129000D9CFE5FFE1CFD9FF00C0E5FF01C0E5FFF1
:1012A00002C0E5FF03C0E5FF020EDBCF00F0016ADC
:1012B0000FEECBF0EFCF02F0036A024A032A03508D
:1012C000E56E0250E56E0150E56E0050E56E5EEC95
:1012D0000CF0006EF3CF01F0040EE126000EE56E77
:1012E000190EE56E0150E56E0050E56EB9EC0AF09E
:1012F000006EF3CF01F0040EE126030E0116D89024
:101300000130036E0030026ED890033202320FEECD
:10131000BBF002C0EFFF0FEEBAF0EFCF02F0030E0A
:101320000016016A0038F00B016E015002120FEE38
:10133000BAF002C0EFFFE4CF03F0E4CF02F0E4CF55
:1013400001F0E4CF00F0E4CFD9FF1200D9CFE5FFE0
:10135000E1CFD9FF00C0E5FF01C0E5FF02C0E5FF16
:1013600003C0E5FF020EDBCF00F0016A0FEECBF009
:10137000EFCF02F0036A024A032A0350E56E0250DF
:10138000E56E0150E56E0050E56E5EEC0CF0006E0F
:10139000F3CF01F0040EE126000EE56E190EE56EA6
:1013A0000150E56E0050E56EB9EC0AF0006EF3CF27
:1013B00001F0040EE126030E0116D8900130036EF1
:1013C0000030026ED890033202320FEEBEF002C03F
:1013D000EFFF0FEEBDF0EFCF02F0030E0016016A33
:1013E0000038F00B016E015002120FEEBDF002C08A
:1013F000EFFFE4CF03F0E4CF02F0E4CF01F0E4CF5D
:1014000000F0E4CFD9FF1200D9CFE5FFE1CFD9FF3B
:1014100000C0E5FF01C0E5FF02C0E5FF03C0E5FF36
:1014200004C0E5FF05C0E5FF06C0E5FF020EDBCF07
:1014300000F0030EDBCF01F0040EDBCF02F0050E4F
:10144000DBCF03F0046A056A0350800BE844066EA4
:10145000065011E10250022603360350015C02E1FE
:101460000250005C04E2D8900332023204D0052A14
:1014700005C004F0E9D70350015C02E10250005CB2
:1014800004E30250005E0350015AD8900332023246
:1014900004C005F004060550EEE101C0F3FF005062
:1014A000E4CF06F0E4CF05F0E4CF04F0E4CF03F09E
:1014B000E4CF02F0E4CF01F0E4CF00F0E4CFD9FFB5
:1014C0001200D9CFE5FFE1CFD9FF00C0E5FF01C091
:1014D000E5FF02C0E5FF020EDBCF00F0016A00A0CD
:1014E0000AD00FEE82F0EFCF02F002880FEE82F00A
:1014F00002C0EFFF09D00FEE82F0EFCF02F00298AA
:101500000FEE82F002C0EFFFD89000320FEE82F0B3
:10151000EFCF02F002860FEE82F002C0EFFF640E02
:101520000001C56F0001C5070001C551FBE10FEEC9
:1015300082F0EFCF02F002960FEE82F002C0EFFFD2
:10154000640E0001C56F0001C5070001C551FBE134
:10155000640E0001C56F012A080E015CD8A0BFD738
:10156000E4CF02F0E4CF01F0E4CF00F0E4CFD9FF04
:101570001200D9CFE5FFE1CFD9FF00C0E5FF01C0E0
:10158000E5FF02C0E5FF03C0E5FF04C0E5FF05C0BD
:10159000E5FF06C0E5FF07C0E5FF020EDBCF00F068
:1015A000030EDBCF01F0040EDBCF02F0050EDBCF24
:1015B00003F0046A056A100E066E0150800BE844C1
:1015C000076E0050002601360450042605360750E9
:1015D000D8A404800350055C02E10250045C05E3DA
:1015E0000250045E0350055A00800604076E07C0CF
:1015F00006F00750E2E101C0F3FF0050E4CF07F02E
:10160000E4CF06F0E4CF05F0E4CF04F0E4CF03F03C
:10161000E4CF02F0E4CF01F0E4CF00F0E4CFD9FF53
:10162000120011EEFFF021EEFFF0F86AA68EA69CE4
:10163000E9680E0EEA6E0068ED6A0050FDE1AA0E40
:10164000F66E2A0EF76E000EF86E0900F5CF05F063
:101650000900F5CF06F034D00900F5CF00F00900FD
:10166000F5CF01F00900F5CF02F009000900F5CF30
:10167000E9FF0900F5CFEAFF090009000900F5CFED
:1016800003F00900F5CF04F009000900F6CF07F0D8
:10169000F7CF08F0F8CF09F000C0F6FF01C0F7FF60
:1016A00002C0F8FF03D00900F5CFEEFF0306FBE20E
:1016B0000406F9E207C0F6FF08C0F7FF09C0F8FF0B
:1016C0000506CAE20606C8E235EC13F0FFD7D9CF0B
:1016D000E5FFE1CFD9FF00C0E5FFC9EC13F0C9EC8D
:1016E00013F0C9EC13F0C9EC13F0C9EC13F0C9EC1A
:1016F00013F00FEE96F0EFCF00F000900FEE96F0A3
:1017000000C0EFFF0FEE96F0EFCF00F000920FEE6B
:1017100096F000C0EFFF0FEE96F0EFCF00F00094D0
:101720000FEE96F000C0EFFF0FEE95F0000EEF6E9B
:101730000FEEC1F00E0EEF6E380EE56E61EC0EF09E
:10174000E6520F0EE56E61EC0EF0E652060EE56E07
:1017500061EC0EF0E652030EE56E61EC0EF0E6521F
:10176000010EE56E61EC0EF0E652E4CF00F0E4CF3E
:10177000D9FF1200D9CFE5FFE1CFD9FF00C0E5FFC7
:1017800001C0E5FF02C0E5FF03C0E5FF04C0E5FFBF
:1017900005C0E5FF06C0E5FF07C0E5FF020EDBCF91
:1017A00000F0030EDBCF01F0040EDBCF02F0036A82
:1017B000046A03500024056E04500120066EE86A96
:1017C00004BEE8680220076E05C0E9FF06C0F3FF0B
:1017D000075098EC14F0056E0550E56ED8EC0DF04E
:1017E000E652034A042A0450800F800F02E1100ED3
:1017F000035CDFE3E4CF07F0E4CF06F0E4CF05F0CD
:10180000E4CF04F0E4CF03F0E4CF02F0E4CF01F042
:10181000E4CF00F0E4CFD9FF1200D9CFE5FFE1CF4C
:10182000D9FF67EC0BF0E4CFD9FF12002020202075
:101830002020202020202000506F7274756775656D
:1018400073202020202020200000456E676C6973E3
:10185000682020202020202020200000416C74657A
:1018600072617220616C61726D6520004368616E07
:10187000676520616C61726D20202000416C746589
:101880007261722074656D706F2020004368616E14
:1018900067652074696D652020202000416C7465A7
:1018A000726172206964696F6D6120004368616EC6
:1018B0006765206C616E677561676500D9CFE5FF6C
:1018C000E1CFD9FF00C0E5FF01C0E5FF02C0E5FFA1
:1018D00003C0E5FF020EDBCF00F0030EDBCF01F00B
:1018E000040EDBCF02F0050EDBCF03F00050000149
:1018F000BE6F0150BF6F02500001C06F0350C16F37
:101900000001BE510001C003F4CF01F0F3CF00F09D
:1019100000500001C26F0150C36F0001BE510001B1
:10192000C103F3CF00F00001BF510001C003F3CFAA
:1019300001F0015000260001C35100260050C36F82
:10194000C3C0F3FFC251E4CF03F0E4CF02F0E4CF11
:1019500001F0E4CF00F0E4CFD9FF1200D9CFE5FFCA
:10196000E1CFD9FF00C0E5FF01C0E5FF02C0E5FF00
:1019700003C0E5FF04C0E5FF05C0E5FF06C0E5FFC5
:1019800007C0E5FF020EDBCF00F0030EDBCF01F056
:10199000040EDBCF02F0036A046A03500024056ED4
:1019A00004500120066EE86A04BEE8680220076E53
:1019B00005C0E9FF06C0F3FF075098EC14F0056E70
:1019C000055008E00550E56ED8EC0DF0E652034AEC
:1019D000042AE3D7E4CF07F0E4CF06F0E4CF05F024
:1019E000E4CF04F0E4CF03F0E4CF02F0E4CF01F061
:1019F000E4CF00F0E4CFD9FF1200D9CFE5FFE1CF6B
:101A0000D9FF00C0E5FF01C0E5FF02C0E5FF006AA5
:101A1000016A0FEE82F0EFCF02F002860FEE82F045
:101A200002C0EFFF640E0001C56F0001C507000191
:101A3000C551FBE1640E0001C56FD89000320FEE76
:101A400082F0EFCF02F002A801D0008E0FEE82F0FC
:101A5000EFCF02F002960FEE82F002C0EFFF640EAD
:101A60000001C56F0001C5070001C551FBE1640E0F
:101A70000001C56F012A080E015CD8A0CAD700502A
:101A8000E4CF02F0E4CF01F0E4CF00F0E4CFD9FFDF
:101A90001200D9CFE5FFE1CFD9FF00C0E5FF01C0BB
:101AA000E5FF02C0E5FF03C0E5FF04C0E5FF05C098
:101AB000E5FF050E006E016A32EC15F0026E036A56
:101AC0000250046E0350056E04500001BC1904E17D
:101AD00005500001BD190FE002A003D0030E006EF7
:101AE000016A02A203D0020E006E016A02A403D0B2
:101AF000040E006E016A02C0BCF003C0BDF001C05C
:101B0000F3FF0050E4CF05F0E4CF04F0E4CF03F09E
:101B1000E4CF02F0E4CF01F0E4CF00F0E4CFD9FF4E
:101B20001200D9CFE5FFE1CFD9FF000EE56E070E19
:101B3000E56E83EC08F0E652E652000EE56E000E0C
:101B4000E56E83EC08F0E652E652210EE56E010EDA
:101B5000E56E83EC08F0E652E652230EE56E020EC7
:101B6000E56E83EC08F0E652E652280EE56E030EB1
:101B7000E56E83EC08F0E652E652100EE56E040EB8
:101B8000E56E83EC08F0E652E652060EE56E050EB1
:101B9000E56E83EC08F0E652E652120EE56E060E94
:101BA000E56E83EC08F0E652E652E4CFD9FF12006E
:101BB000D9CFE5FFE1CFD9FF00C0E5FF01C0E5FFC8
:101BC000020EDBCF00F00FEE84F0EFCF01F00180CA
:101BD0000FEE84F001C0EFFF0FEE84F0EFCF01F0C5
:101BE00001940FEE84F001C0EFFF0FEE83F000C010
:101BF000EFFF0FEE84F0EFCF00F000820FEE84F0E5
:101C000000C0EFFF0FEE84F0EFCF00F000920FEE78
:101C100084F000C0EFFF0FEE84F0EFCF00F00090F3
:101C20000FEE84F000C0EFFFFAEC13F0E4CF01F008
:101C3000E4CF00F0E4CFD9FF1200D9CFE5FFE1CF28
:101C4000D9FF00C0E5FF0FEE94F0EFCF00F0009257
:101C50000FEE94F000C0EFFF0FEE94F0EFCF00F026
:101C600000940FEE94F000C0EFFF0FEECAF0EFCF3C
:101C700000F0030E00120FEECAF000C0EFFF0FEEEF
:101C8000CAF0EFCF00F000840FEECAF000C0EFFF03
:101C90000FEEBDF0EFCF00F00C0E00120FEEBDF016
:101CA00000C0EFFF0FEEBAF0EFCF00F00C0E001205
:101CB0000FEEBAF000C0EFFFE4CF00F0E4CFD9FFA1
:101CC0001200D9CFE5FFE1CFD9FF00C0E5FF01C089
:101CD000E5FF020EDBCF00F00FEE84F0EFCF01F056
:101CE00001900FEE84F001C0EFFF0FEE84F0EFCF14
:101CF00001F001940FEE84F001C0EFFF0FEE83F0CE
:101D000000C0EFFF0FEE84F0EFCF01F001820FEE85
:101D100084F001C0EFFF0FEE84F0EFCF01F00192ED
:101D20000FEE84F001C0EFFF00A203D0C9EC13F066
:101D300002D0FAEC13F0E4CF01F0E4CF00F0E4CFEE
:101D4000D9FF1200D9CFE5FFE1CFD9FF00C0E5FFF1
:101D500001C0E5FF02C0E5FF03C0E5FF04C0E5FFE9
:101D6000020EDBCF00F0030EDBCF01F00FEE83F0AD
:101D7000EFCF02F0010E036E046A00500DE007E69B
:101D8000E86CD89003360436010FFCE305D0D890F8
:101D900004320332010FFCE3031C006E00500216F4
:101DA0000FEE83F002C0EFFFE4CF04F0E4CF03F0C6
:101DB000E4CF02F0E4CF01F0E4CF00F0E4CFD9FFAC
:101DC0001200D9CFE5FFE1CFD9FF00C0E5FF01C088
:101DD000E5FF02C0E5FF03C0E5FF04C0E5FF020E1A
:101DE000DBCF00F0030EDBCF01F00FEE83F0EFCF7F
:101DF00002F0010E036E046A00500DE007E6E86C85
:101E0000D89003360436010FFCE305D0D890043295
:101E10000332010FFCE30350006E005002120FEE7C
:101E200083F002C0EFFFE4CF04F0E4CF03F0E4CF8F
:101E300002F0E4CF01F0E4CF00F0E4CFD9FF1200CC
:101E4000D9CFE5FFE1CFD9FF00C0E5FF01C0E5FF35
:101E500002C0E5FF03C0E5FF020EDBCF00F0030E7A
:101E6000DBCF01F0026A036A0350E56E0250E56EB3
:101E70000150E56E0050E56E000EE56E010EE56E58
:101E8000E80EE56E480EE56E4AEC02F0006EF3CF08
:101E900001F0F4CF02F0E9CF03F0080EE1260006CE
:101EA0000FEECBF000C0EFFFE4CF03F0E4CF02F081
:101EB000E4CF01F0E4CF00F0E4CFD9FF1200D9CF96
:101EC000E5FFE1CFD9FF00C0E5FF01C0E5FF02C09B
:101ED000E5FF03C0E5FF04C0E5FF020EDBCF00F025
:101EE000030EDBCF01F0026A080E036E800E0014B1
:101EF000046ED8900036D89002360450D8A40280E0
:101F00000150025C03E30150025E00800304046E92
:101F100004C003F00450EAE10050E4CF04F0E4CF41
:101F200003F0E4CF02F0E4CF01F0E4CF00F0E4CF1F
:101F3000D9FF1200D9CFE5FFE1CFD9FF00C0E5FFFF
:101F400001C0E5FF02C0E5FF03C0E5FF0FEEC2F0F0
:101F5000EFCF00F000820FEEC2F000C0EFFF0FEEF7
:101F6000C2F0EFCF00F000B2FAD70FEEC4F0EFCF1F
:101F700000F0016A0050016E006A0FEEC3F0EFCF6F
:101F800002F0036A025000260350012201C0F3FF51
:101F90000050E4CF03F0E4CF02F0E4CF01F0E4CF4F
:101FA00000F0E4CFD9FF1200D9CFE5FFE1CFD9FF90
:101FB00000C0E5FF01C0E5FF02C0E5FF03C0E5FF8B
:101FC000020EDBCF00F0030EDBCF01F0026A036AE2
:101FD00001BE0CD0D89001360150005C03E2D890CD
:101FE000013204D0032A03C002F0F2D70150005C92
:101FF00002E30150005ED890013202C003F00206F5
:102000000350F4E10050E4CF03F0E4CF02F0E4CF5A
:1020100001F0E4CF00F0E4CFD9FF1200D9CFE5FF03
:10202000E1CFD9FF00C0E5FF0FEE92F0EFCF00F057
:1020300000940FEE92F000C0EFFF0FEE92F0EFCFA2
:1020400000F0009A0FEE92F000C0EFFF0FEE96F056
:10205000EFCF00F000900FEE96F000C0EFFF0FEE14
:1020600096F0EFCF00F000940FEE96F000C0EFFF77
:102070000FEEC1F00E0EEF6E0FEE95F0000EEF6E4C
:10208000E4CF00F0E4CFD9FF1200D9CFE5FFE1CFD4
:10209000D9FF00C0E5FF01C0E5FF02C0E5FF020E69
:1020A000DBCF00F00A0EE56E00C0E5FFD4EC0FF0C8
:1020B000016EE450E4500A0EE56E00C0E5FF5FECEF
:1020C0000FF0006EE450E4500038F00B026E025046
:1020D00001120150E56E060EE56E83EC08F0E65243
:1020E000E652E4CF02F0E4CF01F0E4CF00F0E4CF19
:1020F000D9FF1200D9CFE5FFE1CFD9FF00C0E5FF3E
:1021000001C0E5FF02C0E5FF020EDBCF00F00A0EC2
:10211000E56E00C0E5FFD4EC0FF0016EE450E45032
:102120000A0EE56E00C0E5FF5FEC0FF0006EE450B4
:10213000E4500038F00B026E025001120150E56EBF
:10214000040EE56E83EC08F0E652E652E4CF02F0AE
:10215000E4CF01F0E4CF00F0E4CFD9FF1200D9CFF3
:10216000E5FFE1CFD9FF00C0E5FF01C0E5FF02C0F8
:10217000E5FF020EDBCF00F00A0EE56E00C0E5FFC2
:10218000D4EC0FF0016EE450E4500A0EE56E00C08E
:10219000E5FF5FEC0FF0006EE450E4500038F00B08
:1021A000026E025001120150E56E030EE56E83ECE3
:1021B00008F0E652E652E4CF02F0E4CF01F0E4CFBB
:1021C00000F0E4CFD9FF1200D9CFE5FFE1CFD9FF6E
:1021D00000C0E5FF01C0E5FF02C0E5FF020EDBCF56
:1021E00000F00A0EE56E00C0E5FFD4EC0FF0016EC2
:1021F000E450E4500A0EE56E00C0E5FF5FEC0FF01E
:10220000006EE450E4500038F00B026E02500112F0
:102210000150E56E020EE56E83EC08F0E652E652E0
:10222000E4CF02F0E4CF01F0E4CF00F0E4CFD9FF37
:102230001200D9CFE5FFE1CFD9FF00C0E5FF01C013
:10224000E5FF02C0E5FF020EDBCF00F00A0EE56EEF
:1022500000C0E5FFD4EC0FF0016EE450E4500A0E2C
:10226000E56E00C0E5FF5FEC0FF0006EE450E45057
:102270000038F00B026E025001120150E56E010EA3
:10228000E56E83EC08F0E652E652E4CF02F0E4CFCC
:1022900001F0E4CF00F0E4CFD9FF1200D9CFE5FF81
:1022A000E1CFD9FF00C0E5FF01C0E5FF02C0E5FFB7
:1022B000020EDBCF00F00A0EE56E00C0E5FFD4ECA5
:1022C0000FF0016EE450E4500A0EE56E00C0E5FF29
:1022D0005FEC0FF0006EE450E4500038F00B026E3B
:1022E000025001120150E56E000EE56E83EC08F01D
:1022F000E652E652E4CF02F0E4CF01F0E4CF00F082
:10230000E4CFD9FF1200D9CFE5FFE1CFD9FF00C05C
:10231000E5FF01C0E5FF006A0FEEABF0EFCF01F083
:1023200001A212D00FEEABF0EFCF01F001980FEE4B
:10233000ABF001C0EFFF0FEEABF0EFCF01F0018883
:102340000FEEABF001C0EFFF0FEE9EF0EFCF01F00C
:1023500001AA04D00FEEAEF0EFCF00F00050E4CFB2
:1023600001F0E4CF00F0E4CFD9FF1200D9CFE5FFB0
:10237000E1CFD9FF00C0E5FF0FEEACF02C0EEF6E01
:102380000FEEABF0900EEF6E0FEEB8F0080EEF6EA2
:102390000FEEB0F0000EEF6E0FEEAFF0220EEF6E0C
:1023A0000FEE94F0EFCF00F0008C0FEE94F000C031
:1023B000EFFF0FEE94F0EFCF00F0008E0FEE94F0F1
:1023C00000C0EFFFE4CF00F0E4CFD9FF1200D9CF77
:1023D000E5FFE1CFD9FF00C0E5FF0FEE94F0EFCFAE
:1023E00000F0009A0FEE94F000C0EFFF0FEE94F0B3
:1023F000EFCF00F000980FEE94F000C0EFFF0FEE6B
:1024000094F0EFCF00F000960FEE94F000C0EFFFD5
:102410000FEEF1F0EFCF00F0009E0FEEF1F000C0F4
:10242000EFFFE4CF00F0E4CFD9FF1200D9CFE5FFF2
:10243000E1CFD9FF00C0E5FF01C0E5FF020EDBCF11
:1024400000F0030EDBCF01F0015002E100C0C7F045
:102450000150010A02E100C0C8F00150020A02E185
:1024600000C0C9F00150030A02E100C0CAF0E4CF85
:1024700001F0E4CF00F0E4CFD9FF1200D9CFE5FF9F
:10248000E1CFD9FF00C0E5FF0FEE94F0EFCF00F0F1
:10249000009A0FEE94F000C0EFFF0FEE94F0EFCF34
:1024A00000F000980FEE94F000C0EFFF0FEE94F0F4
:1024B000EFCF00F000960FEE94F000C0EFFFE4CFF6
:1024C00000F0E4CFD9FF1200D9CFE5FFE1CFD9FF6B
:1024D00000C0E5FF01C0E5FF060EE56EFDEC05F06E
:1024E000006EE65200380F0B016E0F0E0116015000
:1024F0000A0DF3CF01F00F0E001600500126015017
:10250000E4CF01F0E4CF00F0E4CFD9FF1200D9CF3F
:10251000E5FFE1CFD9FF00C0E5FF01C0E5FF030EF5
:10252000E56EFDEC05F0006EE65200380F0B016E13
:10253000030E011601500A0DF3CF01F00F0E001625
:10254000005001260150E4CF01F0E4CF00F0E4CFC9
:10255000D9FF1200D9CFE5FFE1CFD9FF00C0E5FFD9
:1025600001C0E5FF020EE56EFDEC05F0006EE652DF
:1025700000380F0B016E030E011601500A0DF3CF48
:1025800001F00F0E0016005001260150E4CF01F0BB
:10259000E4CF00F0E4CFD9FF1200D9CFE5FFE1CFBF
:1025A000D9FF00C0E5FF01C0E5FF010EE56EFDECBF
:1025B00005F0006EE65200380F0B016E070E011693
:1025C00001500A0DF3CF01F00F0E00160050012646
:1025D0000150E4CF01F0E4CF00F0E4CFD9FF1200C6
:1025E000D9CFE5FFE1CFD9FF00C0E5FF01C0E5FF8E
:1025F000000EE56EFDEC05F0006EE65200380F0BA4
:10260000016E070E011601500A0DF3CF01F00F0EF7
:102610000016005001260150E4CF01F0E4CF00F095
:10262000E4CFD9FF1200D9CFE5FFE1CFD9FF00C039
:10263000E5FF01C0E5FF040EE56EFDEC05F0006E60
:10264000E6520050100BE838016E01500A0DF3CF2E
:1026500001F00F0E0016005001260150E4CF01F0EA
:10266000E4CF00F0E4CFD9FF120076EC13F067EC72
:102670000BF0E2EC13F03BEC14F0E2EC14F00DEC98
:102680000CF01DEC15F0006EF3CF01F00150E56E7B
:102690000050E56EE8EC08F0E652E652AFEC04F0CC
:1026A000E6EC03F087EC14F0ECD71200D9CFE5FF8D
:1026B000E1CFD9FF00C0E5FF0FEE92F0EFCF00F0C1
:1026C00000800FEE92F000C0EFFF0FEEC2F0010E9F
:1026D000EF6E0FEEC1F00E0EEF6E0FEEC0F0AA0E11
:1026E000EF6EE4CF00F0E4CFD9FF1200D9CFE5FFC1
:1026F000E1CFD9FF00C0E5FF0FEE93F0F00EEF6ED3
:102700000FEEF1F0EFCF00F0009E0FEEF1F000C001
:10271000EFFF0FEEC1F00E0EEF6EE4CF00F0E4CF4E
:10272000D9FF1200D9CFE5FFE1CFD9FF00C0E5FF07
:1027300001C0E5FF020EDBCF00F00FEE9EF0EFCF01
:1027400001F001A8FAD70FEEADF000C0EFFFE4CF23
:1027500001F0E4CF00F0E4CFD9FF1200E8AE08D0DA
:10276000F3CFEAFFEE50EECFF3FFEECFF4FF12000F
:10277000E8BC5EEF15F0E9CFF6FFF3CFF7FFF86E98
:102780000900F5500900F5CFF3FF0900F5CFF4FF7C
:102790001200D9CFE5FFE1CFD9FF00C0E5FF01C0AE
:1027A000E5FF320E006EFAEC13F00004016E01C07A
:1027B00000F00150F8E1E4CF01F0E4CF00F0E4CF05
:1027C000D9FF1200D9CFE5FFE1CFD9FF00C0E5FF67
:1027D0000FEED5F0080EEF6E0FEED5F0EFCF00F054
:1027E000008E0FEED5F000C0EFFFE4CF00F0E4CF95
:1027F000D9FF1200D9CFE5FFE1CFD9FF00C0E5FF37
:1028000001C0E5FF0A0E006E0004016E01C000F079
:102810000150FAE1E4CF01F0E4CF00F0E4CFD9FFBA
:102820001200D9CFE5FFE1CFD9FF00C0E5FF020ECE
:10283000DBCF00F00050E56E050EE56E83EC08F08E
:10284000E652E652E4CF00F0E4CFD9FF1200D9CF30
:10285000E5FFE1CFD9FF00C0E5FF050EE56EFDEC19
:1028600005F0006EE6520F0E00160050E4CF00F0A7
:10287000E4CFD9FF1200D9CFE5FFE1CFD9FF0001A6
:10288000CB6BE80E0001B86F030E0001B96F0001B9
:10289000BA6B020E0001BB6FE4CFD9FF1200F2CF7A
:1028A000F6FFF29EA69EA69CE9CFA9FFA680A8509F
:1028B000A92AA680A8CFF3FFA92AA680A8CFF4FF53
:1028C000F6BEF28E1200D9CFE5FFE1CFD9FF00C0EE
:1028D000E5FF0FEEF2F0EFCF00F0040E001600500F
:1028E000E4CF00F0E4CFD9FF1200D9CFE5FFE1CF6C
:1028F000D9FF00C0E5FF020EDBCF00F0010E00148F
:102900000001CC6FE4CF00F0E4CFD9FF1200D9CFA3
:10291000E5FFE1CFD9FF00C0E5FF0FEEF2F0EFCF0A
:1029200000F000A4FAD7E4CF00F0E4CFD9FF120002
:10293000E8AE04D0F3CFEAFFEE501200E8BC5CEF43
:1029400015F0E9CFF6FFF3CFF7FFF86E0900F55069
:102950001200D9CFE5FFE1CFD9FF0001B46B000130
:10296000B56B0001B66B0001B76BE86AE4CFD9FF25
:102970001200D9CFE5FFE1CFD9FF0FEE95F0000EA1
:10298000EF6E0FEE83F0FF0EEF6EE4CFD9FF120073
:10299000D9CFE5FFE1CFD9FF020EDBCFBAF0030EAE
:1029A000DBCFBBF0E4CFD9FF1200D9CFE5FFE1CFF9
:1029B000D9FF020EDBCFB8F0030EDBCFB9F0E4CFC6
:1029C000D9FF1200D9CFE5FFE1CFD9FF76EC13F0A4
:1029D0000001BC6B0001BD6BE4CFD9FF1200D9CF61
:1029E000E5FFE1CFD9FF010EE56E28EC15F0E652C8
:1029F000E4CFD9FF1200F2CFF6FFF29EA69EA69C6E
:102A0000E9CFA9FFA680A850F6BEF28E1200000002
:102A1000005C18006C18007C18008C18009C1800D2
:102A2000AC180000D9CFE5FFE1CFD9FFBBC0F3FF61
:102A30000001BA51E4CFD9FF1200D9CFE5FFE1CFB1
:102A4000D9FFB9C0F3FF0001B851E4CFD9FF12009C
:102A5000D9CFE5FFE1CFD9FF020EDBCFCBF0E4CF3A
:102A6000D9FF1200D9CFE5FFE1CFD9FF00019E5178
:102A7000E4CFD9FF1200D9CFE5FFE1CFD9FF0001A4
:102A8000CC51E4CFD9FF1200D9CFE5FFE1CFD9FF78
:102A90000001CB51E4CFD9FF12003F065B4F666DBA
:102AA0007D077F6F777C395E797101000E2A000007
:102AB0009E00000016000000FBEF14F04FEF14F032
:020000040030CA
:0100010002FC
:0100030000FC
:020005008381F5
:00000001FF
